:020000041000EA
:1000000000B5324B212058609868022188439860DF
:10001000D860186158612E4B002199600221596106
:100020000121F02299502B49196001219960352056
:1000300000F044F80222904214D00621196600F024
:1000400034F8196E01211966002018661A6600F04E
:100050002CF8196E196E196E052000F02FF8012189
:100060000842F9D1002199601B49196000215960AB
:100070001A491B48016001219960EB211966A021F2
:10008000196600F012F800219960164914480160C1
:100090000121996001BC002800D000471248134993
:1000A000086003C880F30888084703B5996A0420EC
:1000B0000142FBD001200142F8D103BD02B5186610
:1000C0001866FFF7F2FF186E186E02BD00000240BE
:1000D000000000180000070000035F00212200005C
:1000E000F4000018222000A00001001008ED00E03C
:1000F00000000000000000000000000074B24E7A12
:1001000000200420F7010010C3010010C5010010F9
:10011000C1010010C1010010C1010010C101001097
:10012000C1010010C1010010C1010010C701001081
:10013000C1010010C1010010C9010010CB01001065
:10014000CD010010CD010010CD010010CD01001037
:10015000CD010010CD010010CD010010CD01001027
:10016000CD010010CD010010CD010010CD01001017
:10017000CD010010CD010010CD010010CD01001007
:10018000CD010010CD010010CD010010CD010010F7
:10019000CD010010CD010010CD010010CD010010E7
:1001A000CD010010CD010010CD010010CD010010D7
:1001B000CD010010CD010010CD010010CD010010C7
:1001C00000BE00BE00BE00BE00BE00BEEFF3058054
:1001D000103800BEF2EB8871845F0010A05F001041
:1001E0003802001090A31AE71E481F49086006C88D
:1001F00081F3088810471D480068002801D019487D
:10020000F3E70DA40ECC002902D000F012F8F9E7B4
:100210001749184A002000E001C19142FCD116495B
:100220008847164988471649884700BEFDE701C937
:1002300001C29A42FBD37047A05F0010C0000020AB
:10024000D0080020B0670010000004200000042047
:10025000B06700100010042000100420000000000F
:10026000704700000000000008ED00E0000000D032
:10027000D0080020500F0020CD4800109D03001032
:10028000C5480010F8B5C04606480749091A8B1042
:10029000C90FC91810B5491003D0044B002B00D06A
:1002A000984710BDD0080020D008002000000000B2
:1002B000054B10B5002B03D00449054800E000BFF2
:1002C000FFF7E2FF10BDC046000000000C0E00204A
:1002D0006C5800100021002010B502F04FF9C04604
:1002E000F0B5CE46474680B58BB06E461F00330052
:1002F000264D89469046041C07CD07C307CD07C38A
:1003000007CD07C32A6822491A60201C02F048FE64
:100310000025002833D01F49201C02F0F0FD1C49A5
:10032000041C013502F03CFE0028F4D1201C02F030
:100330009BFE0022184B02F092FC02F025FD80008B
:100340003158484605F0C8F8201C02F059FE0A2131
:1003500002F018FA890071584046AD0005F0BCF86B
:100360003800715905F0B8F80BB0C0BCB946B046BA
:10037000F0BD201C074902F0D6FD013D041C0549D3
:10038000201C02F0FFFD0028F3D1CFE71C5A00101B
:100390000000C8420000204100002440F0B5DE46C5
:1003A00057464E464546E0B50620BFB0D02401F082
:1003B0007BF840232406A36200220121062000F0DE
:1003C000E3FF01220421D74B062000F0F1FF0520B6
:1003D00001F06AF820230022A3620121052000F029
:1003E000D3FFD14CD149200004F0B0FC03210E20F2
:1003F00000F0B0FF03210F2000F0ACFF002201212C
:100400000E2000F0C1FF002201210F2000F0BCFFF0
:100410003C2340228021009320A80023019400F077
:10042000A7F920A800F0BEF920A800F0A3FA002147
:1004300020A800F0E5FA20A800F09CFA04F0B8FC2F
:100440001F211C2000F086FF002200211C2000F04C
:100450009BFF00211C2001F013F8B54B0A93B54B0C
:100460000B93B54B0493B54B0693B54B07931CAB5D
:100470009B46B44B0893B44B0993B44B0C93B44BC9
:1004800005938023B34C9B012268FA265340E02257
:10049000D2011340B04A8025136000239946AF4B28
:1004A000042798464B467600B1466D001E1C434615
:1004B0001F6023682B42FCD060680004000C02F02F
:1004C0007DFD011C301C02F017FD061C012001F00F
:1004D0001DFE01235B429C46E1444B46002BE6D1C6
:1004E0009F49301C02F00BFD0B9B041C186802F0A6
:1004F00065FD211C02F017FD049B051C186802F025
:100500005DFD211C02F0F5FC011C281C02F0F7FC2B
:100510000A9D2860201C02F0A7FD069E02000B0029
:100520000FA8310004F084F9286802F09DFD020054
:100530000B0011A8310004F07BF92D6807996022A7
:1005400026A802F0EDFD0021281C02F021FD002864
:1005500045D18449281C02F023FD002800D199E0F0
:10056000FE27BF057F49281C02F0C9FC7D49051CF8
:10057000381C02F0D8FC7B49071C281C02F010FD37
:100580000028EFD13EAB9946FE239B059A46764B59
:10059000A84626AE0D971D1C37684046391C02F050
:1005A000A8FC44006408291C201C02F0EBFC002875
:1005B00001D0BA46251C04364E45EDD10D9F51465B
:1005C000381C02F0B0FC6649041C02F0DBFC002879
:1005D00005D16649201C02F0EBFC00287ED02D23BB
:1005E0005A4613800AAA938393841386938720A87C
:1005F000002100F005FA01243C25002320A80293E5
:1006000003220321019400957A3300F039FA25235F
:1006100020A80093252203210194563300F076FB95
:1006200013A920A80623082200F03AFD16A920A845
:100630001023082200F034FD19A920A81C23082249
:1006400000F02EFD0C9920A829230D2200F028FD92
:10065000059920A82923322200F022FD20A8312369
:10066000252231210194009500F050FB11A920A80A
:100670003423052200F014FD34233722594620A8E4
:1006800000F00EFD20A800F075F9AF20800001F009
:100690003DFDF6E6FE21281C8905FE2702F072FCCE
:1006A000BF05002800D16DE72E49281C02F03BFC55
:1006B0002C49051C381C02F022FCFE21071C890570
:1006C000281C02F05FFC002800D15BE70021281CF9
:1006D00002F06EFC0028E7D1002553E713A9201C87
:1006E00019AB16AAFFF7FCFD1F49201C02F04AFCBB
:1006F000002809D0201C02F0B7FC02000B0058466D
:10070000089904F095F872E71749201C02F0F7FBEE
:1007100002F0AAFC02000B005846099904F088F880
:1007200065E7C046D502001060030020801A06006D
:10073000500B0020D4020020D0020020705800107E
:10074000BC59001078580010805800108C580010C8
:100750009058001000C0044000D0044000E0044065
:100760000000FA430000204100007A440050C347D3
:1007700070B50400D00804AB05041B78484312028E
:100780000A432A431B061A43059B0130636001217B
:100790002260206102F0A2FC402303704033E0603D
:1007A000237570BD70B506000025AE2382B01436E7
:1007B0000400C178437532004068AC3B009504F0FA
:1007C000EDFA2023E1786375320060681E3B0095E6
:1007D00004F0E4FA0123E1786375320060680133C4
:1007E000009504F0DBFA4023E1786375320060681D
:1007F0003E3B009504F0D2FAA123E1786375320004
:1008000060689F3B009504F0C9FAA823E1786375FE
:1008100032006068A63B009504F0C0FA3F23E178FF
:100820006375320060683D3B009504F0B7FAC82359
:10083000E178637532006068C63B009504F0AEFA5B
:10084000D323E178637532006068D13B009504F0F2
:10085000A5FAE1783200606865750223009504F01E
:100860009DFADA23E178637532006068D83B009521
:1008700004F094FA1223E178637532006068103B4B
:10088000009504F08BFAD523E17863753200606837
:10089000D33B009504F082FA8023E178637532003F
:1008A00060687E3B009504F079FAD923E17863759E
:1008B00032006068D73B009504F070FAF123E178CC
:1008C000637532006068EF3B009504F067FADB2344
:1008D000E178637532006068D93B009504F05EFAF8
:1008E0003023E1786375320060682E3B009504F098
:1008F00055FA8123E1786375320060687F3B00958B
:1009000004F04CFAFF23E178637532006068FD3B28
:10091000009504F043FAA423E1786375320060681F
:10092000A23B009504F03AFAA623E1786375320001
:100930006068A43B009504F031FA8D23E17863757B
:10094000320060688B3B009504F028FA1423E178AC
:10095000637532006068123B009504F01FFAAF2304
:10096000E1786375606832000095AD3B04F016FADB
:1009700002B070BD70B5060000252123040082B0CE
:100980001436C1784375320040681F3B009504F06F
:1009900005FAE1783200606865750223009504F07D
:1009A000FDF92378E178013B63753200606802232A
:1009B000009504F0F3F92223E17863753200606852
:1009C000203B009504F0EAF9E17832006068657533
:1009D0000223009504F0E2F9A378E178013B637506
:1009E000320060680223009504F0D8F92369E268B8
:1009F000E1786068009504F0D1F902B070BDC0469E
:100A00004378F0B5002B20D0072300269C46012711
:100A1000047800291FD1002C17D063463D003340D5
:100A20009D40ED430023F208EDB20132C46801336A
:100A3000A15CDBB22940A154047808329C42F5D86D
:100A400001364378F6B2B342E5D8F0BD01364378BB
:100A5000F6B2B342F9D9002CF7D063463D003340DB
:100A60009D400023F208EDB20132C4680133A15C5D
:100A7000DBB22943A154047808329C42F5D8E5E75B
:100A8000F0B5DE46574645464E469B46E0B585B036
:100A90000EAB15001A780FAB1B780C00009310AB4F
:100AA0001B7801935B465F19BD4200DB1CE1CB085C
:100AB000013301269C46072399460B40310099409B
:100AC000531EE318DBB20291D908884601218A46F9
:100AD00049460B409E40009BD044002B00D08CE048
:100AE000029BF643D943CBB29A46F3B29946110022
:100AF0002B004A46B94657468A46029403956446F7
:100B0000C668D9006518745D41443C407455C56899
:100B100001336C5CDBB214406C549945EFDC5246F7
:100B2000029C4F461319039D9C422ADA5E46EA0056
:100B300001329046013EAE19F6B2F60001360721A9
:100B40008A460639AB462200454689469C46B04651
:100B50000297039454464F461440A740C368D108F7
:100B60006E189C5D4144BC439C55C4680132635C73
:100B7000D2B2BB4363549445ECDC63465D46029FAE
:100B8000039C019A002A00D183E06A1C791ED2B22C
:100B90008A4691427DDD611C013BC9B28B4278DD02
:100BA00000990235002900D07AE0D2000132944643
:100BB000A21C90460200E9B218008946634601264D
:100BC00094464246D4B20727611EC9B2CA083940CA
:100BD000370065468F40ED689A1892B2A95CB94318
:100BE000A954220001349042EDDC4A460833013218
:100BF0009BB2CA454DDD9146E3E76B461B7A39004F
:100C00009946F6B24F4692462B003200894602942E
:100C100003956446C668D9000D19745D41443C4390
:100C20007455C56801336C5CDBB214436C544B459E
:100C3000EFDB5246029C4F461319039D9C42A0DAFB
:100C40005E46EA0001329046013EAE19F6B2F60069
:100C5000013607218A460639AB46220045468946B9
:100C60009C46B0460297039451464F4611408F4030
:100C7000C368D4082E19F9B29F5D44440F439F55B1
:100C8000C36801321E5DD2B2314319556245EBDBB8
:100C900073E705B0F0BCBB46B246A946A046F0BD1E
:100CA000E9B2D500A21C904601228946944601353E
:100CB0004246D4B20727611EC9B2CA083940674606
:100CC0008F403900C668AA1892B2B75C3943B15454
:100CD000220001349342EDDC4A4608350132ADB2C0
:100CE000D145D6DA9146E3E753188B4200DC48E75A
:100CF0005E46EA00013E0132AE199046F6B2009A15
:100D0000F6000136002A00D119E7A2E7F0B54E46F9
:100D100045465746DE469946E0B589B012AB1E7887
:100D200013AB804618784B465F1AFB17FF185F40DD
:100D3000B31ADC171B196340019300234C461D00B6
:100D4000A1425D410124B2425B416D42A5435B4239
:100D50000135A34303951D00019C013504950796B9
:100D60003D1B002842D00726644205944446B34602
:100D7000C800D30806970294029EDCB2F6682418D5
:100D8000B0465E461640B44601266746BE40B446AD
:100D900046460134A4B2365DB246664657463E43E7
:100DA000B446464667463755494515D0059E6C0002
:100DB000A64206DA01982D1A039884466144C9B206
:100DC000C800069EA642D7DDB446049B65449C46F7
:100DD0006244D2B2D308CFE7079CA242E6D109B061
:100DE000F0BCBB46B246A946A046F0BD0724A346C8
:100DF000019CC800644205944446D30806970294B7
:100E0000029EDCB2F6682418B0465E461640B44630
:100E100001266746BE40B246464657460134A4B254
:100E2000365DBE43B446464667463755894515D0BC
:100E3000059E6C00A64206DA01982D1A0398844696
:100E40006144C9B2C800069EA642D9DDB446049BDF
:100E500065449C466244D2B2D308D1E7079C9442D1
:100E6000E6D1BCE7F0B54546DE4657464E46E0B50E
:100E700000252039CCB2A8469BB05E2C02D8C90010
:100E800089B28846D908072401311991012125002A
:100E90000E001D40AE403500F643EDB209955D1CD5
:100EA000F6B2EDB20896EE08013618960E0025400F
:100EB000AE403500F643EDB20B959D1CEDB2F7B296
:100EC000EE080A97771C0E002540AE403500F64329
:100ED000EDB20D95DD1CEDB20597F7B2EE080C975B
:100EE000771C0E002540AE403500F643EDB20F955D
:100EF0001D1DEDB20297F7B2EE080E97771C0E009B
:100F00002540AE403500F643EDB211955D1DEDB2C2
:100F10000497F7B2EE081097771C0E002540AE40FC
:100F20003500F643EDB213959D1DEDB20197F7B272
:100F3000EE081297771C0E0007332540DBB2AE4057
:100F40001C40A140F5B21595DD08CB43DBB21693EA
:100F5000CBB2179313000135AC4608334F4DDBB2CB
:100F6000454498460123994643460397F743069321
:100F70006346189E1999FFB2B0468C4614970793A2
:100F80005BE0089F3C4034704446C768E4183E1953
:100F90003C5D02270F4200D07CE00A9F3C40347049
:100FA000059CC768E4183E193C5D04270F426ED1CA
:100FB0000C9F3C403470029CC768E4183E193C5DAD
:100FC00008270F4260D10E9F3C403470049CC768D4
:100FD000E4183E193C5D10270F4252D1109F3C404F
:100FE0003470019CC768E4183E193C5D20270F420D
:100FF00044D1129F3C403470039CC668E4183719F2
:10100000345D4026BB460E4235D1149E34405E46C8
:101010003470079C49B2A246C4685344E618B246ED
:10102000E35C002916DB169901320B4051460B7028
:10103000069BD2B20135934216D06446C768D300EE
:10104000E4183E193C5D4F4629780F4299D0099F1C
:101050003C4398E7179901320B4351460B70069BAE
:10106000D2B201359342E8D11BB0F0BCBB46B246C8
:10107000A946A046F0BD159E3443C8E7139F3C43E4
:10108000B9E7119F3C43ABE70F9F3C439DE70D9FA2
:101090003C438FE70B9F3C4381E7C046445A001016
:1010A000F8B507000E0014001D0014E022000834FB
:1010B0002B003800E4B2FFF7D5FE22003B7808325F
:1010C00001369A4202DB00240835EDB22B007A7813
:1010D0000833934202DA31780029E7D1F8BDC046DF
:1010E000D0231B061B68974A9900F0B54E468946E7
:1010F00051585A4253412F2257464546DE465B42DD
:1011000093439846904BE0B59C4683B000270191ED
:10111000E044002939D08D4B0F269B464246FB0800
:1011200008339B009C5801233D009A460837002C49
:1011300022D031002140264218D05B464A469A58B8
:101140002B00EA40203BDB171340524613420DD1DF
:10115000072208002A40920090400200EB087C48D9
:101160003C339B001A502800019B98472409013505
:10117000002C01D0BD42DCD3202FCFD103B0F0BC76
:10118000BB46B246A946A046F0BD704B00200F22D8
:101190009B46C6083300414608339B005B5801005C
:1011A0000830002B00D1B2E017001F40BC461A42A5
:1011B0000FD04C465D460F002C59203FCC40FF1706
:1011C00027400124274204D16446614F3C36B600D3
:1011D000F4511E0900D19AE017003740324213D073
:1011E0004C1CA4465D464C462C5965460E00EC400E
:1011F0001F3EF61726400124264205D1EE08544C26
:101200003C363F01B60037511E0A00D17FE017007F
:101210003740324213D08C1CA4465D464C462C59B4
:1012200065460E00EC401E3EF6172640012426427D
:1012300005D1EE08464C3C363F02B60037511E0B36
:1012400065D01700374032420DD0CC1CA4465D4615
:101250004C462C5965460E00EC401D3EF6172640C4
:101260000124264257D01E0C51D014003440A4460D
:1012700032420BD04C46354E0F1D3659FE40B24619
:101280000E0054461C3EF60F26424BD01E0D3ED09B
:1012900014003440A44632420BD04C462B4E4F1D16
:1012A0003659FE40B2460E0054461B3EF60F26420B
:1012B00040D01E0E2BD014003440A446324212D02F
:1012C0004C46224E8F1D3659FE40B2460E00544603
:1012D0001A3EF60F264206D16446FE083C36270623
:1012E0001B4CB60037511B0FCF1D002B0FD04C46A7
:1012F0005D462E590124FE401939C917314021425B
:1013000005D1F908124E3C311B0789008B5120286A
:1013100000D03EE732E7EE080D4C3C363F03B60006
:101320003751A0E76446FF083C37BE00084F24044D
:10133000F451ABE76446FE083C362705044CB60082
:101340003751B6E7C40D002030410140340E002073
:1013500000400140094A83009A1810B514684022E1
:10136000544080322240064CC000A44663441A60B8
:10137000044B9C466044416010BDC04604C001401F
:1013800004D0014000400140074B8000C3181B6897
:10139000C90092000A435A400C231340034A944662
:1013A000604403607047C04604C0014004D001405F
:1013B000F8B545469846D0231B06DE461C689B467A
:1013C0002B4B57469A46A3004E469946E0B55346E6
:1013D00016004A469B5807000D00002B34D04346A8
:1013E000002B3FD053464A4641469950D0231B0616
:1013F0001C6863425C412F220720634293431D4ACD
:1014000038409446FA081100800085403C311A4863
:101410006344890092000D509B18002E0ED080224C
:1014200092019446634401210D201D6000F0C2F832
:10143000F0BCBB46B246A946A046F8BDC022920108
:10144000944663441D60F3E74346002BD1D05346D6
:1014500041460D2099500022084900F0E7F85B460C
:101460001C68C6E70D20054900F0DAF9BAE7C04666
:10147000C40D00203041014000400140E110001047
:101480008000002905D0064B9C4640236044036041
:101490007047044B9C46402360440360F8E7C04615
:1014A00004E0014004F001400123D02283401206F1
:1014B00093629361094A83009A181168402251404F
:1014C00080320A400649C0008C4663441A60054BCE
:1014D0009C460523604443607047C04604C00140F9
:1014E00004D00140004001400FB400B5084883B06B
:1014F00003F020FB049B002B07D005A918000191E5
:1015000003F0ACF9034803F015FB012003F0BEF92A
:10151000F05800100059001070B5EFF3108C72B63F
:101520000D4D2B68002BFCD0BFF35F8F0724CB0839
:10153000C618C05C01230C40A3401C0004400342B9
:1015400007D118433070BFF35F8F2C608CF3108885
:1015500070BD1000FFF7C8FF2C0100D0044A1078BE
:10156000431CDBB2172B00D9102313707047C04601
:10157000D80200200021044B044ABFF35F8F02C34E
:101580009342FAD17047C046000100D0800100D0DC
:10159000054B064A1360064A136053609360D3609C
:1015A00013615361936170478080808000E400E0A4
:1015B00004E400E01F2318401E3B8340002905D0AF
:1015C000C021044A490053501360704780220149EA
:1015D0008B50FAE700E100E070B50D00EFF31086E4
:1015E00072B60F4A1368002BFCD0BFF35F8F0D4B10
:1015F00010309B6884001B590B4A934203D09D42D4
:1016000001D000F0E1FF074B9B681D51BFF35F8FD6
:10161000BFF35F8F0022024B1A6086F3108870BD03
:10162000240100D000ED00E0CD010010F0B55746D8
:101630004E46DE464546E0B585B0060000911700EF
:10164000EFF3108B72B66A4A1368002BFCD0BFF31D
:101650005F8F0025674B5D579A46002D00DAA9E0A1
:101660006B00654C01935B199B009846A146C144F1
:101670004B4652469B7910361370604BB6009B6800
:1016800099590B1B2F2B33D95D4B994200D0ACE0FD
:10169000019B42469C465B4B6544AD0063535A4BED
:1016A0000232A218043B9B1A1B05584A5B0D6519B0
:1016B00013436B80564B0121AB80FF23AB71009B22
:1016C000EF71AB604B460B4319004C4B9B68995133
:1016D000BFF35F8FBFF35F8F0022454B1A608BF320
:1016E000108805B0F0BCBB46B246A946A046F0BD86
:1016F00001200A008243D3798C46BB4231D845464B
:10170000130044491B1B5B415943090D3D4B635377
:101710003D4B02356519043B5B1B1B053B4D5B0DC7
:101720002B43AA464D466B800425AC465546E04403
:10173000131F44441B1B1B055B0D1D434B46997136
:1017400000999D8099604946DF71334B01431360D6
:10175000BBE75800C01880002018C179B9422FD9C2
:1017600002000623D356002BF3DA02932B4B61467B
:101770000393131D9A4604235B429C46E144504662
:101780004B461B1A1B055B0D9C46204B95719846DA
:101790006346404603439380019B5A199200039B82
:1017A000A418A380029B1C4AA371009B2260E771CE
:1017B000A3608AE700F008FF002553465D574FE716
:1017C000908802934005131D9A46031561469C4676
:1017D0004046D444634604302018181AE02300051C
:1017E000400D1B0218430390C5E700F0EDFE4FE7E4
:1017F000240100D04D0F0020DC02002000ED00E0AD
:10180000CD01001000A1FFFF0C03002000E0FFFF4E
:1018100001BDFFFFAAAA00000148804701BD0000EA
:10182000F0B5DE4657464E464546E0B50C0083B05F
:10183000EFF3108872B6634A1368002BFCD0BFF335
:101840005F8F614B61499A68030010339F00D5593F
:1018500000938D4243D0A54254D05D4EAA1B2F2A3F
:101860003DD85C4B9C461B689A4601231A0099465A
:101870008240534613401F2201934B46024093403F
:101880009A468022634650469850BFF35F8FEFF32D
:1018900005839B46002B37D0009B5B4501D000F0B1
:1018A00093FE2A004B469A439068844208D177E021
:1018B0004B005B189B00F3189868844236D01A00DE
:1018C000062151560029F3DA844255D0019B002BA2
:1018D00027D0C02251463F4B5200995019603A4BD5
:1018E0009B68DD51BFF35F8FBFF35F8F0022354BE5
:1018F0001A6088F3108803B0F0BCBB46B246A94614
:10190000A046F0BD0D00EAE72A004B469A439068D6
:101910008442D5D106201056130000280ADA0D00A3
:1019200032E0802351462B4AD150D8E70620185682
:10193000002822DB42001118890074188946A1682A
:101940009960E179D971062161569971002925DBE9
:10195000A488F11A640524154C440919E0240905EA
:10196000490D24022143998013181B4A9B001178CA
:10197000F31899711070A9E713005946002914D182
:10198000FF3191711549918013490A789A71144A6F
:101990009B1B5B415A43120D0A7097E71149E2E71E
:1019A0000620105613000028C4DA0F4A0F49D21A35
:1019B000083A5002400D014399800D4952080A43EC
:1019C000DA8083E7240100D000ED00E0CD010010B3
:1019D000DC02002000E100E04D0F002001BDFFFF10
:1019E000AAAA000001BD00001603002000F0FFFFBE
:1019F00000F8FFFF70B501240443EFF30581EFF316
:101A0000108C72B6214A1368002BFCD0BFF35F8F95
:101A10001F4B05001F4AED1A6D416A43120D1E4D02
:101A20008900AE6852B27658A6421CD0062159569B
:101A300091421CD012215956914222D01E21595652
:101A4000914220D02A2159560324914210D0134BA1
:101A500019781A708171BFF35F8F00220B4B1A60E7
:101A60008CF3108870BDAB680D4C5C50EFE7002420
:101A70006100091989005B18FF2199710949998052
:101A8000E5E70124F4E70224F2E7C046240100D090
:101A9000DC020020AAAA000000ED00E04D0F0020AB
:101AA000CD01001001BDFFFF024B9C46614489003F
:101AB000016070474000003470B5114C114DAC42CC
:101AC0000FD2FF262368002B0CD0FFF747FD010043
:101AD0002000FFF7E9FFA680BFF35F8F0834AC4218
:101AE000F0D370BDFFF73AFD01002000FFF7DCFFE7
:101AF0002671BFF35F8F0834AC42E3D3F1E7C046F1
:101B0000C8080020D00800200A4B1968EFF31080A5
:101B100072B60A68002AFCD0BFF35F8F1B68BFF360
:101B20005F8F00221A6080F3108840BF00200021E0
:101B30007047C046480F0020F0B5DE4657464E4677
:101B40004546E0B583B0EFF3058203231340B54A61
:101B5000990052580091904601229A40B24B934608
:101B60001A60B24B01932EE043469B881BB2002BB8
:101B700000DB99E043469B79002B00D0DDE0434633
:101B800008241C5F002C00DA06E143465A69630012
:101B90001B19DB00D3189D68DC686B1C00D107E1C2
:101BA000A34B00999C4661449A6A0B69A81A9B1A38
:101BB000984200D20D619E4800F03EFB8C4200DD51
:101BC000EAE000D126E15B46994843634346082298
:101BD0009B5E9946002BC7DB424652695B009246EA
:101BE0004B44DB009A4453469E68DF6800F024FBB8
:101BF0008F42B9DC00D100E1002F00DAE1E052466B
:101C0000534654691B69019A934200D1D4E041467E
:101C100052460820085E528800042100104398476D
:101C200004000D0023002B4300D1CAE0002D00DB8F
:101C3000E7E030003900001BA94153469860D960A5
:101C400000229A5E002A8FDB43465D6953009C1890
:101C5000E4002C19A768E4688C4200DD84E702D117
:101C6000874200D980E74646328108360DE08C4233
:101C700000D1D3E01E000023F25E002A0ADB5300ED
:101C80009C18E4002C19A768E4689B18DB00EB188B
:101C90008C42ECDD53461A804B46338043469B888A
:101CA0001BB2002B00DA65E743461A69EFF3108197
:101CB00072B61368002BFCD0BFF35F8F43469E883B
:101CC000012342465B42938036B21369BFF35F8FB4
:101CD00000221A6081F31088002E00DA4AE743469A
:101CE0005D69083342469C467700BF19FF00EF1933
:101CF000BB68604698460823D15E9246FC6800297E
:101D000007DA0EE0A2424FD018000023C15E00297E
:101D100006DB4B005B18DB00EB18DA68A242F1DD52
:101D2000524606800023FE5E3980002EDCDA9046A3
:101D300043469B79002B00D121E700234246937153
:101D4000434646460821595E08364B1C24D0474678
:101D50008946556902E006004B1C18D04B005B1801
:101D6000DB00E8180A008C46E95E43881BB2002BB2
:101D7000F1DA01235B42DC178360C4604A4503D07B
:101D800031803B8903803A81E1464B1CE6D14C46C9
:101D9000B846002C00DBF8E640BF03B0F0BCBB4601
:101DA000B246A946A046F0BD9A684245ACD9B7E70D
:101DB000631C00D0F4E6FEE6200023699847002863
:101DC00025D1534642461B8813811269EFF31083D5
:101DD00072B611680029FCD0BFF35F8F42465146AE
:101DE00052880A804246494651801269BFF35F8F8C
:101DF0000021116083F31088B6E6864200D8FBE626
:101E0000B2E60B4800F018FA0019694115E7656859
:101E1000246807E7854200D8D5E6BDE7874200D8A9
:101E200028E737E7240E00203C700540391B0010DE
:101E30000040054070B52E4C2569002D04D00A21C4
:101E40002C48FFF731FE70BD2B4E0321300000F00F
:101E5000E9F9E660FFF782FB284B03229C46D0237A
:101E600022701B061B6801216370254B6044A36030
:101E70000F23800020610220638063694942A180B2
:101E800019800231198647311D83585218315A5230
:101E900075325C3999521832013199521832013138
:101EA0009952183201319952083518329D52023137
:101EB000183299521832013199521832013199521F
:101EC00018320131995218320131995218320131C8
:101ED00099520C4B0C49DC6001303562FFF77CFBFA
:101EE00001210320FFF766FB084B1D60A7E7C046F2
:101EF00024030020480F002000400540400000342B
:101F0000FFFF1000240E0020391B00103860054030
:101F100070B501000469EFF3108C72B620680028D8
:101F2000FCD0BFF35F8F02200D5E4C696800401942
:101F3000C0002418002D37DB208848800869BFF3D3
:101F40005F8F002606608CF31088E3606388049836
:101F5000013320615B0405985B0CA26060611A1C70
:101F6000002B1FD093B22804628018430A69EFF354
:101F7000108C72B61368002BFCD0BFF35F8F8B8878
:101F800023808D800B69BFF35F8F00221A608CF372
:101F900010880B7801329A40CB6808498C4663441C
:101FA0001A6070BD0122DDE70B69BFF35F8F00226D
:101FB0001A608CF3108801204042F2E73C200000B8
:101FC00010B543890A1493421ADD53009B184269E5
:101FD000DB00D3180469EFF3108C72B62268002A74
:101FE000FCD0BFF35F8F5A88090494B2090C8A426F
:101FF00008D00369BFF35F8F00221A608CF310884A
:10200000002010BD8022120214435C80012302696B
:102010008371BFF35F8F002111608CF31088044936
:1020200002788C469340C268012062441360E8E75E
:102030003C200000F0B504000D0006267642F7179C
:10204000C64636196F4100B582B08F4214D811D000
:1020500000F0FAF832003B00121A8B41002B17DC1B
:10206000002B47D02000290000F0F8F802B080BC17
:10207000B846F0BD8642EBD90022002316001F00AF
:1020800000F0E2F832003B00121A8B41002BE7DD32
:1020900000F0DAF832003B00121A8B41002B0ADB09
:1020A00000230193154B3200009315483B00FFF7C6
:1020B0002FFF0028D6DB00239C46B046114A124E63
:1020C000736A9F4204D8B16A8845CBD99F42C9D16F
:1020D0001168EFF3108072B60B68002BFCD0BFF3D1
:1020E0005F8F1368BFF35F8F6146196080F31088BC
:1020F00020BFE5E7002AB5D0CAE7C046091B00109B
:1021000024030020480F00200040054070B5060061
:1021100000F09AF8FA2204000D000023300000219C
:10212000920000F0C9FE8023001969411B06994204
:1021300002D3012002494042FFF77CFF70BDC04638
:10214000FFFFFF7FF0B5CE46474680B504000D0087
:1021500083B0EFF305878846002F3ED12E4EA1466F
:102160003378F06804339B00816A1B58601A5B1A4D
:1021700098420ED320BF294900204B6AAB4203D3BB
:102180008A6A0130944231D803B0C0BCB946B04627
:10219000F0BD00F059F822002B00121A8B41002BE1
:1021A0002FDB1F4B2200009330002B000197FFF71D
:1021B000AFFE011E25DD194B5A6AAA421BD220BF71
:1021C0003000FFF7FDFE154A0020536A4345DBD37C
:1021D000926A01309145D7D908E0104900204B6A36
:1021E000AB42D1D38A6A0130A242CDD25B1B5A1EC8
:1021F0009341D8B2C8E79B6A9C42E1D9AA42DFD199
:10220000DDE7064A0020536A4345BDD3926A0120A8
:102210009145B9D9EAE7C0462403002000400540B3
:10222000091B001010B5024A0248FFF775F910BDEE
:1022300004590010CC0D00200300416A0A00986A7E
:10224000596A8A42FAD17047034B596A0A00986A60
:10225000596A9142FAD1704700400540064A536AD4
:102260009942FCD807D1044B02E05A6A914202D14C
:102270009A6A8242F9D3704700400540F8B5DE46BD
:102280004E4657464546E0B58B4605000A9918006C
:10229000160000F09FFA0A9B6C001F02324B641973
:1022A0009C46A4006444636881469F4200D96760ED
:1022B0002B1FDBB29846012B30D9C02380229B0113
:1022C000E31812011A60294BAD0059599A460029AA
:1022D0001BD17301E026226853401E4080234246F2
:1022E0005B01E3181E60012A30D9802380229B0104
:1022F000E31812011A6053464A4667605A51F0BC0F
:10230000BB46B246A946A046F8BD586900F062FA3D
:10231000013043001B18033BFDD2DAE75B46012B7B
:10232000CBD1C02303229B01E3181A60023AA368B1
:102330001A42FCD07301E0262268AD0053401E40D3
:1023400080230A4A5B019246E3181E605A462168C0
:10235000514003220A401A6001225B469A40A3685A
:102360001A42FCD0C1E7C04600800040D00D0020DA
:10237000F0B546464F46D646C0B51F00344B440024
:102380009C462418A4006444636888461600FF2B0A
:1023900002D880235B006360031FDBB29A46012BE7
:1023A00030D9C02380229B01E31812011A60294B07
:1023B00085005959994600291BD17301E0262268EE
:1023C00053401E40802352465B01E3181E60012AE1
:1023D00030D9802380229B01E31812011A608023E8
:1023E0005B0063604B465F51E0BCBA46B146A8460D
:1023F000F0BD586900F0EEF9013043001B18033BB3
:10240000FDD2DAE74346012BCBD1C02303229B0147
:10241000E3181A60023AA3681A42FCD07301E0265E
:102420002268850053401E4080230A4A5B01914682
:10243000E3181E6042462168514003220A401A6098
:10244000012342469340A2681342FCD0C1E7C04634
:1024500000800040D00D0020014B8000C058704724
:10246000D00D0020F8B5040021481E0017000D0013
:1024700000F0B0F90100380000F0ACF9069B36041A
:102480001B031E432368002B20DB1A4B1A49E31859
:102490005A1E93418022920194465B421B0B174ABD
:1024A0001B0363441360164A13601F000A689743B6
:1024B000FBD1144B2560E2182123A0601360236830
:1024C000002BFCDA0823E6601360F8BD3F23226886
:1024D0001340AB42D9D1A3681B051B0D8342D4D155
:1024E000EE22E368D2021340B342CED1EDE7C046FC
:1024F000001BB7000040FDBF08C0004000E00040E6
:1025000000F00040043000008023024A9B000B438F
:10251000D362704700800540142310B5010018886D
:1025200004331B88984710BD162310B50100188886
:1025300002331B88984710BDF8B54746CE4680B594
:102540000F1E19D0142399460433040000250126D8
:1025500098464B461888434621681B88984701C413
:10256000431E9841013540420640AF42F1D1300050
:10257000C0BCB946B046F8BD0126F8E7142370B5D3
:102580000400188804330D001B880349984729006C
:10259000030020009847C04655420000AA23064A7F
:1025A0001B0113602F230549D360054B1960536845
:1025B000002BFCDA7047C0460040024000B0FA0031
:1025C000006002407047C04610B50148FEF78CFF1E
:1025D0002859001070B5074D074EB54209D20024A6
:1025E000013E761BB60808CD984723000134B3425C
:1025F000F9D170BD2858001064580010054B064AE8
:1026000006491A60064A074B1A6010000B68984387
:10261000FBD1704700E00040BFCDFBFE08C000408A
:10262000FE7F3C0000F00040044BDB6C002B03D12C
:102630008022034BD2021A607047C046000011503E
:102640004C201150044A054B1A60054A1368DB01FF
:102650008033FBD17047C046FFFFFF0100F0004010
:1026600008C000404022034B9A675A671A67DA662F
:102670007047C04600F0014010B5FEF77BFF10BD6B
:1026800070B5044D044CA968C022200000F048FD3C
:10269000AC6070BD00ED00E000000020002310B52C
:1026A000294C82B0A367FFF779FF0122274B1A60FC
:1026B000636C012BFCD10322254B1A60224A936BD9
:1026C000012BFCD1013300930121224A224804331B
:1026D000FFF7C8FE052301210093204A2048FFF799
:1026E000C1FE0022022104201E4BFFF741FE002202
:1026F000012105201C4BFFF73BFE00220021072093
:102700001A4BFFF735FE002200210820174BFFF778
:102710002FFE8023DB000093002200210920134BB1
:10272000FFF7ACFD0022104B00210620FFF720FE32
:102730000420FFF791FE0E4900F04CF80100002044
:10274000FFF7E2FE02B010BD008000403CB0004048
:1027500030B00040002F685900800240008C86474E
:1027600000C00240001BB70040597307006CDC0238
:1027700040420F0001480421014B1847400300204C
:1027800039250010124A936F9B0815D29066D166C6
:10279000002905D0FFE7FFE7FFE7516F106F704793
:1027A00004B580210906C2175140002800D0C84353
:1027B00003F02AF8002104BDF0B5146E556E576F72
:1027C000166FFFF7E3FF1466556657671667F0BD8F
:1027D000000000D0114A936F9B0813D21066516617
:1027E000002905D0FFE7FFE7FFE7516F106F704743
:1027F00004B5002801D00020C04303F005F80021F3
:1028000004BDC046F0B5146E556E576F166FFFF7D6
:10281000E5FF1466556657671667F0BD000000D0E7
:1028200094464A4A926F9208624601D228E0C04616
:10283000F0B5464E346E756E776F366F00F020F847
:102840009446424A14665566576716676246F0BD5D
:1028500094463E4A926F9208624601D254E0C046C6
:10286000F0B53A4E346E756E776F366F00F04CF8F7
:102870009446364A14665566576716676246F0BD39
:10288000002B24DB11D000293EDA00B5C9434042B9
:1028900000D1013100F038F8C943404200D1013184
:1028A000DB43524200D1013300BD002AEBD10028A6
:1028B00001D1002905D00020C90FC90701D1C043AB
:1028C000410800B502F098FF0022002300BD00B5CA
:1028D00000290ADBDB43524200D1013300F014F837
:1028E000C943404200D1013100BDC943404200D13B
:1028F0000131DB43524200D1013300F005F8DB43E4
:10290000524200D1013300BD002923D1002B18D140
:10291000002A0CD0BC460D4F38667A660021002391
:10292000FFE7FFE7FFE77A6F386F674670470028D9
:1029300001D00748010000B502F05EFF002200232D
:1029400000BD02000B00002000217047000000D0F5
:10295000FFFFFFFF002B00D0BFE0130C28D1002A9F
:10296000E7D080B4114F39667A66FFE7FFE730B4ED
:10297000040C7B6F396F1B0423433B667A66FFE7C9
:10298000FFE7FFE7C04684B27B6F3D6F1B04234324
:102990003B667A66FFE7FFE7C04600232C042D0C58
:1029A0007A6F386F00196941B0BC7047000000D0E1
:1029B000F0B594460025140E01D112020835140F0B
:1029C00001D112010435940F01D192000235D40FC8
:1029D00001D152000135D40B0134254F7C66254CC2
:1029E0003C660E0C93B2FFE7FFE7FFE73C6F6643E0
:1029F000360C7703BE467343DF0B5B04C01AB94144
:102A0000130C7343DB18C91ACE086643360CB64460
:102A100093B273431F0F1B01C01AB941130C7343C8
:102A20001F0B1B05C01AB941860D8F023E4366433A
:102A3000360C092D24DB520A7243801A7703460AAA
:102A40006643360C16235B1BDE40DF40BF1964462D
:102A50006643821B7046043506330100D940A84006
:102A6000C01900D30131A24206D20023F0BD0000FC
:102A7000000000D0FFFFFFFF121B0130F3D3F1E78E
:102A800009277F1BFE406446A2B27243801A00D21F
:102A90000139220C7243130C1204821A99410B0063
:102AA0007046043513370100F940A840801900D35F
:102AB0000131002B02D1A2420AD2F0BD013000D375
:102AC0000131121BFAD2013BF8D1A24200D2F0BD73
:102AD000013000D30131121BF7E7F0B51C0C00D018
:102AE00080E00CB400251C0A04D11B02160E3343EF
:102AF000120208351C0B04D11B01160F33431201BF
:102B000004359C0B04D19B00960F33439200023591
:102B1000DC0B02D192185B4101351C00971864410F
:102B20000134464F7C66464C3C660E0CFFE7FFE7DF
:102B3000FFE7C0463C6F6643360C7703BE4697B24C
:102B40007743C01B00D20139C01B00D201399FB2AC
:102B50007743C91BC91B170C77437E04FF0B801BEF
:102B6000B941CE086643360C0C2D33DBB644120B4C
:102B70001F053A431B0B97B27743C01B00D20139A4
:102B80009FB27743C91B170C77433E043F0C801B51
:102B9000B941860D8F023E43664329277F1BFE40C5
:102BA0000C3D7746AF40BF1930BCA2B2ABB2724306
:102BB0007343801A9941220C7243130C1204801A39
:102BC000994102000B000137001BA941F9D2781E80
:102BD0000021F0BD0C277F1BFE4077467F0BAF40E6
:102BE000FF19E0E700245D1C07D0144F7D663966AD
:102BF000FFE7FFE7FFE7FFE73C6F95B29EB2654353
:102C00006643401BB141150C1E0C654366433604F8
:102C10002F0C3E432D04401BB141994204D20200C7
:102C20000B0020000021F0BD01D19042F7D3801AA3
:102C3000994101349942F2D3F6E70000000000D038
:102C4000FFFFFFFF48404140484018B4134B5B680A
:102C5000019308BD18B4114B1B68019308BD94463D
:102C60000F4A926F920805D2624618B40B4BDB688C
:102C7000019308BD0A4AF0B5146E556E576F166F72
:102C80006246FFF7F2FF064A1466556657671667F5
:102C9000F0BD18B4014B9B68019308BD500A002099
:102CA000000000D0FFB550404240504059404B40DA
:102CB000594000E0FFB5154F4C00640D03D0BC42F5
:102CC00004D10C0314D80020090D09055C00640D23
:102CD00003D0BC4204D11C030AD800221B0D1B05E3
:102CE00001264B4009D44B4003D58B4200D1824290
:102CF000FFBD9942FCD19042FFBD0B43DB1803435B
:102D00001343F5D0C9434918FFBD0000FF07000079
:102D100000B5FFF7CFFF804100BDC04600B5FFF70B
:102D2000C1FF01D9002000BD012000BD00B5FFF7A3
:102D3000B9FF804100BD012040054A00121804D8A7
:102D40005A00121801D80020704701207047000077
:102D50000021002805D17047C1174840401AFAD019
:102D6000C90713B5064B1B6898470CBC441CA2400E
:102D70001005120B0349091B09051943114310BD26
:102D8000440E00201F04000010B54C00620D80238B
:102D9000D218DB00D21A5B057E2A10DD9E3A13DAC8
:102DA000CC170903490819435242D1406400013449
:102DB0001532202A05DAD0400843604310BD0020B8
:102DC00010BD0846604310BDC80FC018013810BDC3
:102DD00018B4024B5B6A019308BD0000500A002042
:102DE00010B50148FEF780FB34590010132370B56D
:102DF0001D78012D19D014DD1D48FFF795FB060045
:102E00001C48FFF791FB1C4C80223100200000F091
:102E100087F9022D06D01948FFF77EFB184B186082
:102E200070BD154C174BA364F5E7174B124C23608C
:102E30006360A360E36023616361A361E361236274
:102E40006362A362E36223636363A363E363236454
:102E50006364A364E36423656365A365E365236634
:102E60006366A366E36623676367A367E367D9E7DF
:102E70005344000053460000500A00204C33000029
:102E8000440E00208D2E0010E12D001007B5604685
:102E900001880A0A0230DF2AFAD1C9B2820804D3B3
:102EA000028840880004104300E00068014A505046
:102EB000039007BD500A002051434343C9188C4674
:102EC000110C83B24B4310B4040C614392B280B234
:102ED000504362431C041B0C001910BC59411304DD
:102EE000120CC018514161447047000048404140F5
:102EF00048400E4B5B6818470C4B1B6818470C4A40
:102F0000936F9B0802D2094BDB681847F0B5146E2B
:102F1000556E576F166FFFF7F6FF054A1466556634
:102F200057671667F0BD014B9B681847480E002095
:102F3000000000D007B548404140484001E0C0468D
:102F400007B54200120E03D0FF2A03D1420218D85F
:102F5000C00DC0054A00120E03D0FF2A03D14A0259
:102F60000FD8C90DC9050122414005D4414001D502
:102F7000814207BD884207BD0143491801D0C043C3
:102F8000001807BD00B5FFF7DBFF804100BDC0465C
:102F900000B5FFF7D5FF01D9002000BD012000BD1D
:102FA00000B5FFF7C7FF01D9002000BD012000BD1B
:102FB00000B5FFF7BFFF804100BD0000C10FC9078A
:102FC00000D54042002817D0F44603B40B4B1B68D1
:102FD000984706BC81409E384042803107D20B069C
:102FE00007D04900490AC005104308436047013033
:102FF000F8E7490A8902F5E770470000440E00200F
:1030000041000A0E80231B067E2A0BDD9E3A0BDA56
:10301000C1174002400818435242D04049000131D4
:103020004843704700207047C00FC01801387047F0
:10303000C0420DD300B540004008002100F00EF85A
:10304000002801D4404200BD8020000600BD0000E1
:10305000014BDB6918470000480E0020014B5B6AFA
:1030600018470000480E0020014BDB6F1847000096
:10307000480E002010B50148FEF736FAA859001096
:10308000132310B510481C78FFF74EFA0100012CED
:103090000AD003DD80220D4800F042F80C48FFF70B
:1030A0003BFA0C4B186010BD084C5422200000F075
:1030B00037F82200084980322368002B00D12160B4
:1030C00004349442F8D1E9E753460000480E00204A
:1030D0004C330000440E00207530001070B5050020
:1030E0000C0001F081FE6C43002804D0034B04194E
:1030F0009C4200D870BD0248FEF7F6F9000004209B
:103100004C59001001480421014B1847500300207E
:1031100039250010014B1B681847000050030020A0
:10312000014B5B6818470000500300209A4200D210
:10313000885470477047C046F8B55746DE464E463D
:103140004546E0B599460A9B07009A460D9B88467E
:1031500093460B9C9B073BD10C9B9C423DD21E1B74
:103160000B9415000C005E442A004B4601352100EB
:103170002020B847B542F7D1A0460B9C002C20D0A8
:10318000454636195346321B013C185D29004B4613
:10319000B847002CF6D12B00350098460D9B9B07B5
:1031A0000FD55B46EC1A0C9BA3420AD946469846BB
:1031B0002A004B46310020200134B84701354445F0
:1031C000F6D32800F0BCBB46B246A946A046F8BDDF
:1031D00016001500002CD3D1E0E71600002CCFD14B
:1031E0001500EEE7F0B54F464646D646C0B584B06A
:1031F00098460EAB1B7894469946129B0D9C109FE7
:10320000119E9A0725D4002E65D1BC4221D20122FD
:103210001A409246202C00D1E9E00C9A551E30222B
:1032200002E0202C00D17BE001342A55A742F8D8D7
:103230005246002A0DD0B4420BD20C9A551E3022B1
:10324000202C02D171E0202C2DD001342A55B4421B
:10325000F9D1DA063CD55A052ED4002C28D10F9A84
:10326000102A00D1B6E0022A00D1BCE030220C9C2A
:10327000227001244A46002A65D15A0700D499E0F9
:103280002B220C9D2A55013403930C9B624600931C
:10329000029643460194FFF74FFF04B0E0BCBA46E4
:1032A000B146A846F0BD2024DA06EDD55A0503D470
:1032B000A74266D0B44264D00F9A102A71D0022A75
:1032C00057D0202CE0D02200013430250C9FBD5473
:1032D000202CD9D0CEE7012215001D40AA461A4263
:1032E00036D04A46002A4AD10C321A4247D1BC4253
:1032F000A1D2202C91D1202E17D82024DA06C3D5B4
:103300005A051BD4202F01D0202ED5D11F220F9D6E
:10331000102D6FD0022DD8D162250C9FBD54D0E75F
:103320005246002A79D0202EBDD92024DA06ABD50A
:103330005A0503D4202FE9D0202EE7D00F9A102A67
:10334000A2D12024A0E72D220C9D2A5501349BE711
:10335000BC4200D37DE7202C00D05EE7DA06F0D532
:103360005A05EED4202F62D0202EEAD134001F223D
:10337000CDE7202C00D187E722000134CCE7013EC5
:10338000B5E7621E012CC2D10F9A102A00D06AE75D
:103390009A063BD558220C9C2270283A627002246F
:1033A00068E79A060ED4202CCBD078220C9D2A55A3
:1033B000013486E71A0700D466E720220C9D2A55BF
:1033C000013461E7202CBCD058250C9A12191570D5
:1033D000013476E79A0608D558220C9C22703022D8
:1033E0006270022446E76032F7E77822F5E7002AA8
:1033F00083D1B3E7A21E013C9D0603D478250C9F20
:10340000BD5460E758250C9FBD545CE778220C9CA6
:103410002270483A627002242CE7DA0600D433E7BF
:103420005A058BD4202F00D044E71F226FE73C00C1
:103430001F226CE710B5002800D110BD01F02EFB53
:10344000FBE7C046F0B557464E464546DE46E0B57A
:1034500099B08246894690460893229A239B100091
:103460001900FFF768FC002800D0CDE022982399CE
:103470000122D94B5242FFF759FC002800D0C3E08B
:10348000229823990122D54B5242FFF741FC002894
:1034900000D0B9E02298239900220023FFF738FCDE
:1034A000002800D0F1E1229E239F8023269ADB0092
:1034B0001A400D92269A1A4201D1062324938023A2
:1034C000269A1B011A403B0093460996334300D0CD
:1034D000B3E0002A00D0C2E1002300240A930B9439
:1034E000002304250993259B0024AB4200D95C1BD3
:1034F0000223269A1A400C92269A134203D06B425A
:103500006B415B421C40099B002B07D00A9A0B9B26
:1035100030003900FFF7A3FB06000F002298239923
:1035200000220023FFF7F4FB002803D080210906C6
:103530007B181F00269AAA4B009601971340089EFD
:103540000493249B03940293424633004946504619
:1035500000F0AAF90400002D67D02020269A4946E1
:10356000024013005A4253415B42621C18400A92C7
:10357000330022004530D047099A6F1ED317D41864
:103580005C40D30F9B46002501E0202D13D008AAF4
:1035900094461F23200063440A2101355E19FFF77A
:1035A00019F93031317020000A21FFF713F9260094
:1035B0000400092EE9D805230693002304930A3357
:1035C00003935B46089E029310AB0A9A0093494608
:1035D0003300504605970195FFF704FE0C9A04004E
:1035E000002A22D04246851A259AAA421DD9B04601
:1035F0005746160022004346494620200135B84769
:103600000134AE42F6D810E0269B42460493259B37
:1036100049460393249B50460293229B239C00938C
:103620000194089B00F040F90400200019B0F0BCA0
:10363000BB46B246A946A046F0BD6A4B78009C4600
:10364000400D6044FFF788FB674A684BFFF721FB9A
:10365000674A684BFFF7FEFA674A3B031B0B1A43A6
:1036600004000D0009981100644B0022FFF7EDFAE9
:10367000634A644BFFF70DFB02000B00200029009A
:10368000FFF7E8FAFFF780FB0990FFF765FB5E4A5A
:103690005E4B04000D00FFF7FCFA00225C4BFFF7C5
:1036A000D9FAFFF771FB5B4A5B4B29000C902000B5
:1036B000FFF7EFFA04000C980D00FFF74DFB574A97
:1036C000574BFFF7E6FA02000B0020002900FFF736
:1036D000BCFA04000D0002000B000A940B95FFF7E2
:1036E000D8FA04000D000A980B9902000B00FFF7AE
:1036F000B1FA00220E900F914A4B20002900FFF7EB
:10370000AEFA0022484BFFF7A5FA02000B0020009A
:103710002900FFF7A4FA0022444BFFF79BFA0200AE
:103720000B0020002900FFF79AFA0A9A0B9B0D0064
:1037300080210400C9050020FFF787FA02000B0072
:1037400020002900FFF786FA02000B000E980F995F
:10375000FFF785FA0022284BFFF77CFA344B0C9CCC
:103760009C46644423050022FFF793FA04000D00F1
:1037700002000B00300039000A940B95FFF7C8FADD
:1037800000285DD123002A00C625099963318D42A6
:10379000AD4159466D420435002900D1A3E61343DB
:1037A00063D030003900234A234BFFF7B7FA0028D3
:1037B00007D0002230003900204BFFF7A9FA00287B
:1037C00053D1249B002B00D18DE60D9B5A1E9341B3
:1037D000249AD31A249386E6FFFFEF7FFFFFEFFFC3
:1037E000FFF7FFFF01FCFFFFFB799F501344D33F1E
:1037F000B3C8608B288AC63F0000F03F0000F83F46
:1038000061436F63A787D23F71A379094F930A4041
:103810000000E03F1655B5BBB16B0240EF39FAFE30
:10382000422EE63F00002C400000244000001840DB
:10383000FF0300002D431CEBE2361A3F80842E412B
:10384000099B0022013B09932000164B2900FFF73A
:1038500006FA0A00010003000A910B9294E7002384
:1038600000240A930B9400230993249A099B9A42FB
:1038700014DDD31A013B24938023269ADB001A43DC
:1038800000230025269209932DE6802212069446F5
:10389000229B1E00239B63441F0006E60023249303
:1038A000EAE7C04600002440F0B54546DE464E46F5
:1038B0005746E0B595B08B46904699461E9A1F9B99
:1038C0000A9019001000209DFFF735FA002800D05B
:1038D000B0E11E981F990122C74B5242FFF718FA18
:1038E000002800D037E11E981F990122C34B524295
:1038F000FFF71CFA002800D0A7E01E981F990022AD
:10390000BF4BFFF713FA002800D088E01E981F99DC
:103910000022BC4BFFF7FCF9002800D07FE01E9886
:103920001F9900220023FFF7F3F9002800D0FAE0E6
:1039300000230B938023229C229ADB001C401A4216
:1039400000D102E1092D00D87CE106A98C462C00AB
:10395000172200233021093C62440133D154EF1A6D
:10396000202B00D132E1A342F7D10022A44B0692D2
:1039700007931E981F99FFF707FA0500FFF7ECF968
:1039800002000B001E981F99FFF75FF9069A079B2C
:10399000FFF77FF908900991FFF71AFA0600FFF781
:1039A000D7F902000B0008980999FFF74EF9002299
:1039B000954B08900991FFF7B9F9002800D1D2E0A2
:1039C00001363000FFF7C4F9069A079BFFF7A6F906
:1039D000002801D000260135AA46002F00D098E02B
:1039E0002800FFF7B9F902000B001E981F99FFF796
:1039F0002CF9854B002206000F00FFF789F90CAB6C
:103A00009A46002845D10022300039007E4BFFF74E
:103A10008DF900283DD1EB073BD5013539E0229BDC
:103A200042460493219B594603930A981E9B1F9C70
:103A30000295009301944B46FFF704FD15B0F0BCCE
:103A4000BB46B246A946A046F0BD229B5B0767D4A1
:103A500003226E4B229901920391219902910093C6
:103A600042464B4659460A98FFF766FBE6E706AA28
:103A700094461723280063440A2101341E19FEF7D7
:103A800081FE3031280031700A21FEF77BFE051ED1
:103A900076D0202CEBD10323229A1340012B1DD189
:103AA000219B002B1AD00B9B002B00D0BBE0229A4D
:103AB0000C33134200D0B6E0219BA34200D887E02C
:103AC00006AB9C4617223023624404E0219901345E
:103AD00013558C4259D0202CF8D12024229B0194DC
:103AE0000393219B02935346B9E706AA94461723F2
:103AF0000A216344300001341D19FEF76BFE30319A
:103B0000297030000A21013FFEF764FE092E46D9D4
:103B10000600202CE9D155460CAB20249A46B8E784
:103B200004223B4B96E71E9A1F9B00200021FFF7C3
:103B30008CF801230B938023229C229ADB001E9099
:103B40001F911C401A4200D0FCE60022314B062790
:103B5000069207930DE7229B0393219B0293042374
:103B600001932D4B7BE7002208980999264BFFF71C
:103B7000CFF8002800D02FE7002E4FD101362BE7D9
:103B80000323229A1340012B66D0202CA6D00B9B36
:103B9000002B1FD02D235246135501349EE7554666
:103BA000202CB9D030233A19002F08D0172006A9AD
:103BB000013409180B55202CAED09442F6D10CAB31
:103BC0009A462E2352461355013462E72024CCE650
:103BD000202C83D0229B5B0708D4229B1B0700D498
:103BE0007CE7202352461355013477E72B235246B6
:103BF0001355013472E7C046FFFFEFFFFFFFEF7F71
:103C000065CDCD4165CDCDC10000E03FAC59001080
:103C1000A459001080842E41B4590010F30700D439
:103C2000DAE60136D8E6219B013B2193A34200D975
:103C300046E7AAE7229B0393219B02930323019368
:103C4000074B0CE7074BEA009B185C681B682F00CA
:103C50000693079400248CE6219B002B95D022E745
:103C6000B0590010305F0010F0B55746DE464E46A2
:103C70004546E0B5A5B01F002E9B91460D93CA4A5C
:103C8000CA4B82468B461A60002900D129E20023E4
:103C900038789846002800D12BE2C54B44460C9357
:103CA000C44B55464E460E930AE0631C98462200CC
:103CB00033005946A84744463878002800D187E0A9
:103CC00001372528F1D108239A46043B9946023B47
:103CD0009846013B00229C460B943878791C0300DF
:103CE000203BDBB2102B03D80C9C9B00E3589F4673
:103CF0000300303B0B9C0B92092B3AD900239846CA
:103D00002A2800D1DDE000239A462E284BD003005C
:103D1000683BDBB2122B1ED80E9A9B00D3589F46ED
:103D200063460F001A43D8E743460F001A43D4E70F
:103D30004B460F001A43D0E710230F001A43CCE77D
:103D400053460F001A43C8E780235B000B9A78782C
:103D50001A430B9201310F0067284FD82428A4D9A9
:103D60000300253BDBB2422B9FD893499B00CB58E5
:103D70009F46002398460B9B47469C4600E0013136
:103D8000BB00DB195B001F180878303F0300303B95
:103D9000092BF4D963460B930023B8469A460F00CB
:103DA00001312E28B3D180200B9AC00002430B9220
:103DB00030225242944678780B0084446246092AA5
:103DC00000D8AAE12A2800D1B9E10F0001319EE70D
:103DD000A046AA46B146C84503D301235B424B44E3
:103DE00098464B46424659460020D047200025B011
:103DF000F0BCBB46B246A946A046F0BD01006939F9
:103E0000C9B20F2900D950E701238B409C466B4B68
:103E1000994663464A4613400F9362464B461A4200
:103E200000D068E10A2956D0072900D03DE70D9B54
:103E300002CB9846002900D092E10B9B10211A007A
:103E40008A43100011310843814680201A00C000C7
:103E50000240110003421CD114AB9C461F220F23C9
:103E600062440D959C4615000F9B0B9402E0202B9D
:103E70000CD0110064460C4020003730092C00D8CB
:103E800007380133E8540A090F29F0D80B9C0D9D1F
:103E90000F934B460822069353460592083203922D
:103EA000002204930F9B029201931CAB220000930B
:103EB000594633002800FFF795F9434604000D9357
:103EC000FAE60D9B04CB9046002A79DB78780D93B7
:103ED0000F00013117E70D9B02CB14930B789C4622
:103EE00018005346002B00D134E1002815D053466A
:103EF000013B013399460D940B9C89444A460B00C3
:103F0000A14601E0934203D05C780133002CF9D143
:103F10004A465B1A0D9C0B920F938023DB00994657
:103F20000B9A13400D934B461A4204D00F9B5345F6
:103F300001D953460F93022399460B9A13400B93D2
:103F40004B46134200D1F5E16346002B00D1D6E188
:103F50000D9B002B00D182E10B1BD14631009A460C
:103F60003B00A1442E005F464D4622009B468946F9
:103F700009E04B463900541CB0475346185D0028F1
:103F800000D192E122009542F3D14B465A46A94610
:103F9000BB46350017001E004C460B9B002B00D083
:103FA000ADE1149B0D9387E6693C0010080E0020DC
:103FB000905D0010D45D0010205E00104190000064
:103FC0000B9A283802430B92424652427878904628
:103FD0000F000D93013196E678786C2800D15DE1F1
:103FE00080230B9A5B001A430B920131B3E68023C6
:103FF0009B00ABE67878682800D148E180230B9AD3
:1040000001311A430B92A6E6672800D1B2E0472897
:1040100000D11AE1452800D11CE10B9A0721049236
:1040200042460D9B0392073352468B43190002927E
:104030000CC92800009201930D91220033005946CB
:10404000FFF700FA040037E6462800D18DE00B9A0E
:104050000721049242460D9B0392073352468B433D
:10406000190002920CC92800009201930D912200C0
:1040700033005946FFF718FC04001DE6631C984600
:104080002200330059462520A847444614E60D9BDC
:1040900004330F93631C99460B9B9A0700D40AE1E3
:1040A0000D9B2200187859463300A84743464444E4
:1040B000012B00D86FE1B0462E0025004C46B946D2
:1040C0005F4622004346013439002020B047AC420D
:1040D000F7D12C00BB4635004F4646460F9B0D934B
:1040E000EAE5D64B38789A4600239846002800D057
:1040F000D3E500246FE66F2842D000D8FDE11023FD
:10410000782800D19BE00B9A9A430B920A239C4695
:10411000002314930A330F9338E057460B9AB900E3
:10412000C919490001330F181878303F01003039A0
:104130000929F4D9BA460B921F00591CE7E50D9BDB
:10414000B87804CB0237D143C9170A4092460D9381
:10415000791CDCE5002800D1DFE602235B42C8E6DB
:1041600021200B9A0243914676E620230B9A1A43AC
:104170000B926CE780230B9A1B011A430B924CE7BE
:1041800008239C460023149308330F930B98802335
:104190000200DB001A4011000200184200D080E04B
:1041A0000C239A431000802302009B001A400B92BC
:1041B000184200D0F1E0802302005B001A409146D3
:1041C0000D9A04321492184200D0C3E2430600D57F
:1041D000D7E0030600D421E30D9B1B880993002B35
:1041E00000D02DE110339843002900D128E10023AD
:1041F000994643460593534604930F9B06900393B9
:10420000002302934B4601931CAB220000935946B6
:1042100033002800FEF7E6FF0400C2E6582809D064
:10422000622800D0E3E202239C4600231493023369
:104230000F93ABE720230B9A1A430B92103B9C463B
:104240000023149310330F93A0E780230B9A1B01D4
:104250001A430B9220230B9A1A430B92DDE60B1B99
:104260009A460F9B99463B0037005E469B462200CC
:104270003B003100A84753460134185D0028F6D1B1
:104280004B460F935B46B3463E001F0085E6C023B6
:104290000B9AB8781A430B92F91C5CE5C0239B007B
:1042A000F6E70D239A4310007DE75B463500BB46D9
:1042B0004E461F0071E64346012B66D9631E4344F8
:1042C00032002E001D003B00A2465F4691469B46F1
:1042D00022004B46013439002020B047AC42F7D1D0
:1042E0005B463500BB464E46A14654461F000D9B1B
:1042F0004A461878594633004444A847EEE60F9BD7
:10430000A146984500D84CE64444E41AB0462E0035
:1043100025004C46B9465F46220043460134390029
:104320002020B047AC42F7D12C00BB4635004F46A9
:10433000464636E60F98804500D873E24346E218B9
:10434000131A32002E001D003B0091465F469B462B
:104350000F9122004B46013439002020B047AC4277
:10436000F7D15B46BB461F0043460F9901330F93BD
:104370000B7835009C464E466046002800D0E7E5A5
:104380000FE60D9B1B78099329E70D9B22001878F7
:1043900059463300A8474C46A0E60D9AFA3BFF3B2E
:1043A00007329A430133994691444B460D93136863
:1043B000526815921A4306D1103290430022099296
:1043C000002900D083E06122810600D54122D2B2CB
:1043D0000A9214AA91460A9A00210A3A0B9242467E
:1043E0001792524618925A46B24609911E001F3142
:1043F000149B4944BB4616941A9500246746984678
:104400008946159D19901B920AE03032D2B24B4674
:1044100001341A55A8454CD0202C4CD006000D0074
:104420003A00002330002900FEF712FAD2B2092A1E
:10443000EBD90B9B9C466244D2B2E8E735310010C1
:104440006123820600D54123DBB20A3B0B9343462E
:1044500014A91F228C46159353466244B2460D940C
:1044600017974C468046A9461700099D0F9E169344
:1044700008E03033DBB201343B55B5420ED3202C7B
:104480000CD0050031002800FEF7A4F9CBB20929B1
:10449000EFD90B9A94466344DBB2ECE7159B404698
:1044A0009846169B4D465646A1469A460D9C179F28
:1044B0009FE6B742B0D9179B56469846189B5F4671
:1044C0009A461B9B09949B46169C19981A9D434635
:1044D0000593534604930F9B069003930023029386
:1044E000099B01931CAB220000935946330028001E
:1044F000FEF778FE0400FFF7DFFB10230B9A9A43C8
:104500000F92692800D091E10B9980230A00DB000B
:104510001A4010000A00194203D0112118008A43E2
:104520000F920F9A802311009B0019408C461A426B
:104530005BD1802311005B00194089460D9904313D
:104540000B911A4200D0B2E013005B0600D4EDE0FC
:104550000D9B1B781A00D90F0D91002B00D1A3E001
:10456000100014AA944642461F23159252466344F3
:10457000A846BA464D461494B14604001F00169250
:1045800001E0202D0FD020000A21FEF723F901358C
:104590007E193031317020000A21FEF71BF9260008
:1045A0000400092EEDD8159B4E46A946454698466F
:1045B000169B57469A46149C0F9B069343460593B9
:1045C000534604930A2303930D9B02934B46019396
:1045D0001CAB22000093594633002800FEF702FE70
:1045E0000B9B04000D93FFF767FB07220D9B07331E
:1045F0009343013294469C4462460D920CCBD90FF2
:104600000B911100194300D19BE0D917139112911E
:104610005140109113995940119110981199129A83
:10462000139B801A99411090119114AA9446424606
:104630000023159252469946169232001F33634466
:10464000A8464E46BA4614941F00109C119D9146F0
:1046500001E0202E10D0200029000A220023FEF7BE
:10466000F7F8013630322B00BA550D002200040055
:10467000002BEED1092AECD8159B109411954546D4
:1046800098464B46169AB14657461E009246149CD1
:104690000F9B069343460593534604930A230393C3
:1046A0000B9B02934B461CE7002885D159E70D9BD5
:1046B0001B68DA0F1100002B00D1A6E0DA1798185A
:1046C000504014AA91461F2342464B44A8460D94DD
:1046D000169704006546B1461F001491159201E03B
:1046E000202D0FD020000A21FEF774F801357E1925
:1046F0003031317020000A21FEF76CF826000400EA
:10470000092EEDD8159BAC4645469846149B4E465F
:1047100019000D9C169F0F9B02910693434605932B
:10472000534604930A230393634650E713001B0682
:104730006ED50D9B00229B5ED9175A184A4092B243
:1047400009E7002399460028A2D1002200231092F5
:1047500011936AE70D9B1B689946002B03D1103318
:104760009843002938D16123820600D54123DBB26A
:104770000A3B0D9343461693534614A91F228C46B9
:1047800017932B0062444D46B24615941897804605
:10479000170099460B9C0F9E08E03033DBB20134C2
:1047A0003B55B5420ED3202C0CD00500310028001B
:1047B000FEF710F8CBB20929EFD90D9A944663445D
:1047C000DBB2ECE7169B40469846179B56464D4693
:1047D0009A460B94189F159C4346059353460493A1
:1047E0000F9B06900393002302930B9B0BE50B9901
:1047F00080230A00DB001A4010000A00194200D092
:104800008BE610239A430F928BE6002883D158E75A
:104810000D9B1B68D9175A184A409CE60D9B1B68D4
:104820000993DCE4030001330F93A5E50B926DE4DB
:104830000EB4012230B584B007AC08CC064D01009F
:104840000094280052420394FFF70EFA04B030BCE3
:1048500008BC03B01847C0462D31001010B5094AF6
:104860000300146884B0002C08D00122009106488F
:10487000524203A9A047012004B010BD00F05AF92C
:104880000020F9E7080E00203534001000BEFDE7D7
:10489000094A03001068002805D00849C3188B4254
:1048A00007D81360704706480449C31810608B424C
:1048B000F7D901204042F5E7040E00200000042053
:1048C000500F002010B5FFF7E1FFC04670B5FDF7AF
:1048D00081FE074D074EB54209D20024013E761BEA
:1048E000B60808CD984723000134B342F9D170BD12
:1048F000645800106C580010030010B50800110037
:104900001B68984710BDC046F0B5C64600B5437D4C
:1049100007000D001600002B38D0002A2EDD0021E4
:104920006A1E90466A5C037D4C1C00200A2A0CD04B
:10493000A64216D043461B5D21000D3B5A4253410F
:104940006A5CDBB24C1C0A2AF2D1002BF0D18842FF
:1049500017DB022110483B689847A64207D0200089
:10496000E8E7864203DD311A3B6828189847AD19FD
:10497000013D2B780D3B5A4253413B7580BCB846F4
:10498000F0BD091A3B6828189847E2E70368110050
:1049900028009847F2E7C046805F0010F0B5DE4679
:1049A00057464E464546E0B585B017001C00060048
:1049B0000D00FDF749FC0023314A12184B418021BC
:1049C00009068B4202D301222E4B52422E49080087
:1049D0008A4600F021FF01906B1C03D1300000F0EB
:1049E00087FD0500002C26D0284B9846284B1C68D4
:1049F000002C15D0002F21D1264F02E02469002C75
:104A00000ED02368002BF9D03B68002B01D09C42CC
:104A1000F4D120002A003100C0472469002CF0D1D5
:104A2000019B002B28D1280005B0F0BCBB46B24644
:104A3000A946A046F0BD184B9846D7E7154B9946B6
:104A400002ABDF1D0A239B4602E02469002CE7D05D
:104A50002368002BF9D04B461B68002B01D0A342E2
:104A6000F3D12A0031002000C0475B460122390003
:104A700020003B70C047E8E7504600F0B5FED2E7A3
:104A800040420F00FFFFFF7FC808002009490010C7
:104A9000F80D0020000E0020F9480010F0B5CE46B9
:104AA000474680B583B06B460600DD1D2870FDF7D4
:104AB000CBFB00231A4A12184B41802109068B4276
:104AC00002D30122174B524217490800884600F0D2
:104AD000A3FE164B81461C68002C14D0144F02E034
:104AE0002469002C0FD02368002BF9D03B68002BE1
:104AF00001D09C42F4D1200001222900FFF704FFDD
:104B00002469002CEFD14B46002B05D1300003B0B7
:104B1000C0BCB946B046F0BD404600F065FEF5E7C2
:104B200040420F00FFFFFF7FC8080020F80D002063
:104B3000000E002070B5040000F0DAFC0123010033
:104B4000050001222000FFF729FF084B1C68002CFC
:104B500006D06368002B05D098472469002CF8D153
:104B6000280070BD2469002CF3D1F9E7F80D00206E
:104B700010B5024800F004F810BDC0463C0E0020FD
:104B800010B588B004000D2200216846FEF7C2FA75
:104B90000D22002104A8FEF7BDFA4B236A466846A1
:104BA000137004A90D2200F017FE15210822200021
:104BB0006944FEF7B5FA08B010BDC046F0B55746D7
:104BC0004E46DE4645468446E0B583B01F000CAB3A
:104BD00018786346914600221B680190DA6601321C
:104BE0005960DA66002F4FDD7A1E904662461279D0
:104BF00001269202802493463A00464076028025A0
:104C00003700002046461021A2469046AD00841B86
:104C1000624254414A4664423C4000945C46125C05
:104C20002243009C22431A615A6B1142FCD0524627
:104C30009C58002C10D1B04221D000220130934664
:104C40008045E4D16346019A1A7103B0F0BCBB46BB
:104C5000B246A946A046F0BD5A6D012293465A6B52
:104C60002A42FCD01A6E5A46002AE6D0002C03D005
:104C7000E30701D42407E5D401204042E2E7019A8A
:104C8000002ADAD19346EAE70020DBE7F8B5DE46F2
:104C900057464E4645468346E0B505200C00FDF7D5
:104CA000DBFB0600600821008019FDF793FD43003F
:104CB00098468044070005214046FDF78BFD3B1ACE
:104CC0009A461E4B8146700080199C4231D81C497F
:104CD000FDF780FD451C5B461C680023E3662268E7
:104CE00004335A400233134080225201A218136049
:104CF0005346E3614B462362434601204F2B03D9C1
:104D000050214046FDF766FDA023E050E36F3900D7
:104D10005D400C4B2D042D0CE3181D600123300069
:104D2000E366FDF757FDF0BCBB46B246A946A04678
:104D3000F8BD0549FDF74EFD451CCCE73F420F008D
:104D4000809698007C10000040787D010F4A70B575
:104D5000821A531E9A410E4BD20008321A600D4B34
:104D60000D4C1A60150023689D432B1EFAD1662452
:104D70000268FF340571D5661460633C8833FF3CDC
:104D8000D5639563D450FFF781FF70BD68030020A1
:104D900000E0004000F0004008C0004010B582B0C4
:104DA00004AC24780094FFF709FF02B010BDC046A0
:104DB00001230121084A1360084A1360084A0800C9
:104DC00013689843FBD1074A11608021490013689A
:104DD0000B42FCD07047C04600E0004000F00040AD
:104DE00008C0004000C00440030010B50A00034999
:104DF0000868190000F004F810BDC04680070020C4
:104E000070B50B0C0024150C002B28D1002D3CD1C3
:104E10008BB291B2594300F047F8051E33D003001E
:104E2000083B5A6803239A43043A242A12D8030001
:104E3000132A0AD90460446008331B2A05D9846008
:104E4000C460242A2AD00300103300221A605A605A
:104E50009A6002E00021FEF75DF9280070BD002D88
:104E600016D1151C89B292B24A43ADB29BB26B43C4
:104E7000110C5B18190C0BD1190492B2114300F0FC
:104E800013F8051ECBD10025E7E72B1C0D1CE9E725
:104E900000F00EFB0C2300250360DEE70300046135
:104EA00018334461D1E7C046F0B54E464546DE466C
:104EB0005746E0B50D000B35060085B0162D27D8F6
:104EC000102900D9DAE000F0D1FA102518230221C8
:104ED000C74FFB181A005C68083A944200D146E1BB
:104EE00003226368A1689343E268CA60916001216C
:104EF000E3185A6830000A435A6000F0BFFA2000F5
:104F0000083005B0F0BCBB46B246A946A046F0BD8D
:104F100007239D4300D5B1E0A94200D9AEE000F0DF
:104F2000A5FAFC235B009D4200D29AE1690A00D1F8
:104F3000A8E0042900D94FE138239846A9098844FC
:104F40003931CB00082252429446A94FFB189C44A9
:104F50006346DC68A44514D0032399460B006146E0
:104F60009C4607E0E068002A00DBFAE0814200D1BD
:104F7000FBE004004A46636893435A1B0F2AF1DDA5
:104F800041463A003C690832944200D1D8E00320FF
:104F900063688343581B0F2800DD66E13A617A613C
:104FA0000028A4DA7A68904680229200934200D3C7
:104FB000E3E0DA085809012383404046184380465D
:104FC000D300DB199A687860E360A2609C60D460CB
:104FD00001208B10984040455CD8434603420AD1DB
:104FE00003239943434640000431034203D1400068
:104FF00004310342FBD00323B3469C460E00B8465F
:105000000190F00040440100B246CB680BE06446DA
:105010005A681F00A243DB68541B0F2C00DDF3E02D
:10502000002C00DB0DE19942F1D101239946CA44DD
:10503000534608319B07E8D1032205E0036808388E
:10504000013E834200D00AE23242F7D14346019A40
:105050005B68934342465360019A520001929A4220
:1050600016D8002A06D113E004229146019ACA44B8
:10507000520001921342F7D05646C2E70C2300209B
:1050800033603EE780233F22402190469B0059E752
:105090005E4647460322BC68636893439946AB4229
:1050A00002D35B1B0F2B4EDC23004B440293514B6E
:1050B00008201B6810335B19019300F0FFF94E497B
:1050C00003900B688B46013306D08446019B424215
:1050D000013B6344134001933000019900F0D6F97D
:1050E00003008046013300D1DDE0029B834200D9FA
:1050F000D7E0019A414B944619689A466144039A55
:105100001960029B0800013A434500D0EAE043469B
:10511000134200D0E6E0BB68984663464B441A0051
:1051200001231A4343465A60354B1868884200D21F
:105130001960344B1868884200D219604446B4E0C4
:105140007B68984644E701222900134311436519FF
:1051500061603000BD606B6000F090F920000830A5
:10516000CFE6A268D0608260C1E6614609E7DC68EC
:105170000231A34200D104E7B2E65A0A042A00D859
:1051800088E0142A00D90FE110005B3082465C32BF
:10519000D200082040428446BA189444624692687D
:1051A0000B308146944500D1E5E00800A2466146F7
:1051B000844602E09268914204D04C465068A04375
:1051C0009842F7D8D368614654469C466346A2602D
:1051D000E3609C60D460FBE6142973D9542900D99C
:1051E000EBE06E239846290B88446F31CB00A9E68B
:1051F00078030020880B002070030020580B00204B
:10520000800B0020840B0020BA46012051468446C2
:105210004919054350464560856847466046EB603E
:105220005E469D6053463961796120430837486086
:10523000CF6030008F609C5000F020F9504608305D
:105240005FE6BA4601205E46524451680143516010
:10525000BA683000D3609A6000F010F93800083066
:105260004FE62B00E908083332E661198846012130
:105270008C460D434146656039617961CA608A6038
:10528000624602434A60E050300000F0F7F8200028
:10529000083036E69A091000393238308246D2009A
:1052A00077E7BC4214D0BC68626803239A43531B5F
:1052B000AA4202D30F2B00DD45E7300000F0DEF8F4
:1052C00000201EE65B23984688445C31CB0039E61B
:1052D000644B9A461868019B9C465346604418608C
:1052E000039B5A1E5B461B68013371D043460299EB
:1052F0005B1A51461B180B60072341464046194074
:105300000291184240D00398013384465B1A0199F8
:10531000984441440191634411405B1A1A401100C2
:105320003000934600F0B2F8431C78D04346C01AD0
:1053300003005B44019353461968012059441960E6
:105340004346019ABB6002435A60BC4200D1EBE67F
:105350004B460F2B40D907220C3B93436268024017
:1053600005201A436260E218506090600F2B4BD802
:1053700043465A68D8E65346981001238340404676
:1053800018438046786021E7019B0399434413400A
:10539000CB1A1A4011003000934600F077F8431CF6
:1053A000C4D100239B46C6E7542A18D81A0B100014
:1053B0006F326E308246D200EBE6AA235B00994240
:1053C00018D8DD3B9846E90B88447831CB00B9E525
:1053D0005B46414619608FE7434658606DE7AA2057
:1053E0004000824226D8DA0B1000783277308246AD
:1053F000D200CEE61C4B994226D87C239846A90CB5
:1054000088447D31CB009DE521003000083100F05B
:10541000F7F853461968BB6898465A6884E6019ABB
:10542000029B94464246083B63449B1A0193002327
:105430009B4680E70C4882420CD89A0C10007D32C3
:105440007C308246D200A4E6FE237E227F21904655
:105450009B0077E5FE227E209200824699E6434635
:105460005B68F9E5580B00205405000010B50248B0
:1054700000F03AF810BDC046540B002010B50248A9
:1054800000F034F810BDC046540B0020002370B566
:10549000064C050008002360FFF7FAF9431C00D012
:1054A00070BD2368002BFBD02B60F9E7FC0D0020BA
:1054B000014B18687047C04680070020802310B554
:1054C0005B01082801D1180010BDFFF7F1FF16237A
:1054D0000360173BF7E7C04603000A7801311A70F2
:1054E0000133002AF9D170477047C0467047C04663
:1054F00010B583070AD00300032102E001330B42F9
:1055000005D01A78002AF9D1181A10BD03001968BD
:105510000C4A0D4C8A188A4322420FD15968094A15
:1055200004338A188A43224208D15968054A043351
:105530008A188A432242F1D000E001331A78002A07
:10554000FBD1E1E7FFFEFEFE80808080F0B5C6461D
:10555000060000B508200D00FFF7B0FF0400300082
:10556000FFF784FF234B210098469B685F68032365
:105570009F4338001138401B0019FDF72BF9451ED9
:105580006543AC4208DC00213000FFF77FFF434653
:105590009B68DB19984206D03000FFF76FFF0020B0
:1055A00080BCB846F0BD30006942FFF76FFF0130A4
:1055B0000ED0012243467F1B9B6817430E4A5F6053
:1055C000136830005B1B1360FFF758FF0120E7E70B
:1055D00000213000FFF75AFF43469A68831A0F2BC9
:1055E000DADD064C04492468001B086001210B43E6
:1055F0005360D1E778030020580B0020700300208F
:10560000F8B5CE46474605000C0080B5002957D0B6
:10561000FFF72CFF012321009C46083948686246A9
:10562000030003249343CF187A68654EA243B468FD
:10563000BC4200D170E0BC18A14664467A600442C6
:1056400021D10868091A1B188868804648464068B6
:105650002040340008348146A04551D04046CC68F3
:10566000C460A0604846002811D19B185548BA680C
:10567000824200D17FE0F868D060826001221A4344
:105680004A60CB5007E0484640682042EDD0624671
:105690001A434A603B6080229200934214D2DA0897
:1056A000580901238340706803437360D3009B193A
:1056B0009A68CB608A609960D1602800FFF7DEFEAF
:1056C000C0BCB946B046F8BD5C0A042C3DD89C0964
:1056D000200039343830E40034192268083C0327AC
:1056E000944203D140E09268944203D05068B8439A
:1056F0009842F8D8D468CC608A60A160D160DCE7B9
:10570000002858D1B868D218FB68C3609860634617
:1057100013434B608A50D0E79A186346034206D180
:105720000B68C91A8868D218CB68C36098600123D7
:1057300013434B60244BB1601B689342BDD8234B8D
:1057400028001968FFF702FFB7E7142C07D9542C7B
:105750001AD81C0B20006F346E30E400BCE7200028
:105760005C345B30E400B7E701238010834070684D
:1057700003437360BFE7D1609160CA608A60012211
:105780001A434A60CB5098E7AA225200944205D8A7
:10579000DC0B200078347730E4009DE70C4A94421B
:1057A00005D89C0C20007D347C30E40094E7FE2476
:1057B0007E20A40090E762461A434A603B607CE783
:1057C000780300208003002074030020880B002051
:1057D00054050000F8B5C04601B40248844601BC37
:1057E000604700BFF901002001B40248844601BCB3
:1057F000604700BF5D01002001B40248844601BC3F
:10580000604700BFB902002001B40248844601BCD1
:10581000604700BFB902002001B40248844601BCC1
:10582000604700BFC1000020FD25001029260010A0
:105830007527001005310010ED2D0010813000108B
:105840009D260010452600106526001079260010C0
:10585000B91A001081260010351E0010C525001051
:0C58600091150010B1020010714B0010F7
:1058700025312E3066000000252E31664F686D0000
:10588000252E31666B4F686D000000004F484D00BB
:10589000526573697374656E2E00000050726574F2
:1058A0006F0000004D6172726F6D00005665726D81
:1058B000656C686F000000004C6172616E6A610087
:1058C000416D6172656C6F00566572646500000021
:1058D000417A756C0000000056696F6C6574610058
:1058E00043696E7A610000004272616E636F00006E
:1058F0000A2A2A2A2050414E4943202A2A2A0A00ED
:105900000A000000486172647761726520616C6111
:10591000726D20256420616C726561647920636C0E
:1059200061696D6564000000486172642061737391
:10593000657274006D697373696E6720646F756258
:105940006C652066756E6374696F6E004F757420A8
:105950006F66206D656D6F727900000052656C6531
:1059600061736500626F6F74325F77323571303802
:1059700030000000322E312E300000007069636F5D
:105980005F77000054657374655F566F6C74696D62
:105990006574726F00000000417072203236203250
:1059A00030323500666E692B00000000666E6900BB
:1059B0006E616E00666E692D000000000000803F81
:1059C000CDCC8C3F9A99993F6666A63F0000C03FB8
:1059D000CDCCCC3F6666E63F00000040CDCC0C400D
:1059E0009A991940CDCC2C400000404033335340AD
:1059F000666666409A9979409A99894066669640AB
:105A00003333A3403333B3406666C6409A99D940D6
:105A10000000F040333303419A9911419C58001023
:105A2000A4580010AC580010B8580010C05800100E
:105A3000C8580010D0580010D8580010E058001076
:105A4000E858001000000000000000000000005FA7
:105A50005F0000000007070007070000147F7F14A5
:105A60007F7F1400242E2A6B6B3A12004666301892
:105A70000C666200307A4F5D377A480000040703F5
:105A80000000000000001C3E634100000000416374
:105A90003E1C0000082A3E1C1C3E2A080008083E46
:105AA0003E080800000080E06000000000080808D0
:105AB0000808080000000060600000006030180C5A
:105AC000060301003E7F594D477F3E000040427F64
:105AD0007F404000727B4949494F46004141494956
